{
  "contractName": "Set",
  "abi": [
    {
      "constant": true,
      "inputs": [
        {
          "internalType": "uint256",
          "name": "",
          "type": "uint256"
        }
      ],
      "name": "items",
      "outputs": [
        {
          "internalType": "bytes32",
          "name": "",
          "type": "bytes32"
        }
      ],
      "payable": false,
      "stateMutability": "view",
      "type": "function"
    },
    {
      "constant": false,
      "inputs": [
        {
          "internalType": "bytes32",
          "name": "value",
          "type": "bytes32"
        }
      ],
      "name": "add",
      "outputs": [],
      "payable": false,
      "stateMutability": "nonpayable",
      "type": "function"
    },
    {
      "constant": false,
      "inputs": [
        {
          "internalType": "bytes32",
          "name": "value",
          "type": "bytes32"
        }
      ],
      "name": "remove",
      "outputs": [],
      "payable": false,
      "stateMutability": "nonpayable",
      "type": "function"
    },
    {
      "constant": true,
      "inputs": [
        {
          "internalType": "bytes32",
          "name": "value",
          "type": "bytes32"
        }
      ],
      "name": "contains",
      "outputs": [
        {
          "internalType": "bool",
          "name": "",
          "type": "bool"
        }
      ],
      "payable": false,
      "stateMutability": "view",
      "type": "function"
    },
    {
      "constant": true,
      "inputs": [],
      "name": "count",
      "outputs": [
        {
          "internalType": "uint256",
          "name": "",
          "type": "uint256"
        }
      ],
      "payable": false,
      "stateMutability": "view",
      "type": "function"
    }
  ],
  "bytecode": "0x608060405234801561001057600080fd5b5061034f806100206000396000f3fe608060405234801561001057600080fd5b50600436106100575760003560e01c806306661abd1461005c5780631d1a696d1461007a578063446bffba146100c057806395bc2673146100ee578063bfb231d21461011c575b600080fd5b61006461015e565b6040518082815260200191505060405180910390f35b6100a66004803603602081101561009057600080fd5b810190808035906020019092919050505061016a565b604051808215151515815260200191505060405180910390f35b6100ec600480360360208110156100d657600080fd5b8101908080359060200190929190505050610189565b005b61011a6004803603602081101561010457600080fd5b81019080803590602001909291905050506101f2565b005b6101486004803603602081101561013257600080fd5b81019080803590602001909291905050506102a8565b6040518082815260200191505060405180910390f35b60008080549050905090565b6000806001600084815260200190815260200160002054119050919050565b6000600160008381526020019081526020016000205414156101ef57600081908060018154018082558091505090600182039060005260206000200160009091929091909150555060008054905060016000838152602001908152602001600020819055505b50565b6000600160008381526020019081526020016000205490506000811161021757600080fd5b6000806001600080549050038154811061022d57fe5b90600052602060002001549050806000600184038154811061024b57fe5b9060005260206000200181905550816001600083815260200190815260200160002081905550600160008181805490500391508161028991906102c9565b5060006001600085815260200190815260200160002081905550505050565b600081815481106102b557fe5b906000526020600020016000915090505481565b8154818355818111156102f0578183600052602060002091820191016102ef91906102f5565b5b505050565b61031791905b808211156103135760008160009055506001016102fb565b5090565b9056fea265627a7a723158206c83c64ed62be44f12ad91cf3996517c5a2f8f13b120323ff34c83101803871064736f6c63430005100032",
  "source": "pragma solidity 0.5.16;\r\n\r\ncontract Set {\r\n    bytes32[] public items;\r\n\r\n    // 1-based indexing into the array. 0 represents non-existence.\r\n    mapping(bytes32 => uint256) indexOf;\r\n\r\n    function add(bytes32 value) public {\r\n        if (indexOf[value] == 0) {\r\n            items.push(value);\r\n            indexOf[value] = items.length;\r\n        }\r\n    }\r\n\r\n    function remove(bytes32 value) public {\r\n        uint256 index = indexOf[value];\r\n\r\n        require(index > 0);\r\n\r\n        // move the last item into the index being vacated\r\n        bytes32 lastValue = items[items.length - 1];\r\n        items[index - 1] = lastValue;  // adjust for 1-based indexing\r\n        indexOf[lastValue] = index;\r\n\r\n        items.length -= 1;\r\n        indexOf[value] = 0;\r\n    }\r\n\r\n    function contains(bytes32 value) public view returns (bool) {\r\n        return indexOf[value] > 0;\r\n    }\r\n\r\n    function count() public view returns (uint256) {\r\n        return items.length;\r\n    }\r\n}",
  "sourcePath": "D:/Code/solidity/contracts/set_storage_pattern/set.sol",
  "compiler": {
    "name": "solc",
    "version": "0.5.16+commit.9c3226ce.Emscripten.clang"
  },
  "schemaVersion": "3.3.2",
  "updatedAt": "2021-06-23T20:13:53.078Z",
  "devdoc": {
    "methods": {}
  },
  "userdoc": {
    "methods": {}
  }
}