{
  "contractName": "Set",
  "abi": [
    {
      "constant": true,
      "inputs": [
        {
          "internalType": "uint256",
          "name": "",
          "type": "uint256"
        }
      ],
      "name": "items",
      "outputs": [
        {
          "internalType": "bytes32",
          "name": "",
          "type": "bytes32"
        }
      ],
      "payable": false,
      "stateMutability": "view",
      "type": "function"
    },
    {
      "constant": false,
      "inputs": [
        {
          "internalType": "bytes32",
          "name": "value",
          "type": "bytes32"
        }
      ],
      "name": "add",
      "outputs": [],
      "payable": false,
      "stateMutability": "nonpayable",
      "type": "function"
    },
    {
      "constant": false,
      "inputs": [
        {
          "internalType": "bytes32",
          "name": "value",
          "type": "bytes32"
        }
      ],
      "name": "get",
      "outputs": [
        {
          "internalType": "bytes32",
          "name": "",
          "type": "bytes32"
        }
      ],
      "payable": false,
      "stateMutability": "nonpayable",
      "type": "function"
    },
    {
      "constant": false,
      "inputs": [
        {
          "internalType": "bytes32",
          "name": "value",
          "type": "bytes32"
        }
      ],
      "name": "remove",
      "outputs": [],
      "payable": false,
      "stateMutability": "nonpayable",
      "type": "function"
    },
    {
      "constant": true,
      "inputs": [
        {
          "internalType": "bytes32",
          "name": "value",
          "type": "bytes32"
        }
      ],
      "name": "contains",
      "outputs": [
        {
          "internalType": "bool",
          "name": "",
          "type": "bool"
        }
      ],
      "payable": false,
      "stateMutability": "view",
      "type": "function"
    },
    {
      "constant": true,
      "inputs": [],
      "name": "count",
      "outputs": [
        {
          "internalType": "uint256",
          "name": "",
          "type": "uint256"
        }
      ],
      "payable": false,
      "stateMutability": "view",
      "type": "function"
    }
  ],
  "bytecode": "0x608060405234801561001057600080fd5b506103e2806100206000396000f3fe608060405234801561001057600080fd5b50600436106100625760003560e01c806306661abd146100675780631d1a696d14610085578063446bffba146100cb5780638eaa6ac0146100f957806395bc26731461013b578063bfb231d214610169575b600080fd5b61006f6101ab565b6040518082815260200191505060405180910390f35b6100b16004803603602081101561009b57600080fd5b81019080803590602001909291905050506101b7565b604051808215151515815260200191505060405180910390f35b6100f7600480360360208110156100e157600080fd5b81019080803590602001909291905050506101d6565b005b6101256004803603602081101561010f57600080fd5b810190808035906020019092919050505061023f565b6040518082815260200191505060405180910390f35b6101676004803603602081101561015157600080fd5b8101908080359060200190929190505050610285565b005b6101956004803603602081101561017f57600080fd5b810190808035906020019092919050505061033b565b6040518082815260200191505060405180910390f35b60008080549050905090565b6000806001600084815260200190815260200160002054119050919050565b60006001600083815260200190815260200160002054141561023c57600081908060018154018082558091505090600182039060005260206000200160009091929091909150555060008054905060016000838152602001908152602001600020819055505b50565b600080600160008481526020019081526020016000205490506000811161026557600080fd5b6000818154811061027257fe5b9060005260206000200154915050919050565b600060016000838152602001908152602001600020549050600081116102aa57600080fd5b600080600160008054905003815481106102c057fe5b9060005260206000200154905080600060018403815481106102de57fe5b9060005260206000200181905550816001600083815260200190815260200160002081905550600160008181805490500391508161031c919061035c565b5060006001600085815260200190815260200160002081905550505050565b6000818154811061034857fe5b906000526020600020016000915090505481565b815481835581811115610383578183600052602060002091820191016103829190610388565b5b505050565b6103aa91905b808211156103a657600081600090555060010161038e565b5090565b9056fea265627a7a723158203030ceffbfed59a46580b7b9987cd761673276d8939edfeeb6dda16afe1a4f1e64736f6c63430005100032",
  "source": "pragma solidity 0.5.16;\r\n\r\ncontract Set {\r\n\r\n    // Create an array of items\r\n    bytes32[] public items;\r\n\r\n    // 1-based indexing into the array. 0 represents non-existence.\r\n    mapping(bytes32 => uint256) indexOf;\r\n\r\n    function add(bytes32 value) public {\r\n\r\n        // If the mapping has a value of 0, the item is not in the array\r\n        if (indexOf[value] == 0) {\r\n            items.push(value);\r\n\r\n            // The very first item will have index value of 1 (not 0)\r\n            indexOf[value] = items.length;\r\n        }\r\n    }\r\n\r\n    // TODO: write tests\r\n    function get(bytes32 value) public returns (bytes32) {\r\n        uint256 index = indexOf[value];\r\n\r\n        require(index > 0);\r\n\r\n        return items[index];\r\n    }\r\n\r\n    function remove(bytes32 value) public {\r\n        uint256 index = indexOf[value];\r\n\r\n        // ensure that the item has been previously inserted into the array\r\n        require(index > 0);\r\n\r\n        // move the last item into the index being vacated\r\n        bytes32 lastValue = items[items.length - 1];\r\n        items[index - 1] = lastValue;  // adjust for 1-based indexing\r\n        indexOf[lastValue] = index;\r\n\r\n        // Reduce the number of items in the array\r\n        items.length -= 1;\r\n\r\n        // Reset the index of that value\r\n        indexOf[value] = 0;\r\n    }\r\n\r\n    function contains(bytes32 value) public view returns (bool) {\r\n        return indexOf[value] > 0;\r\n    }\r\n\r\n    function count() public view returns (uint256) {\r\n        return items.length;\r\n    }\r\n}",
  "sourcePath": "D:/Code/solidity/contracts/set_storage_pattern/set.sol",
  "compiler": {
    "name": "solc",
    "version": "0.5.16+commit.9c3226ce.Emscripten.clang"
  },
  "schemaVersion": "3.3.2",
  "updatedAt": "2021-08-26T21:21:58.413Z",
  "devdoc": {
    "methods": {}
  },
  "userdoc": {
    "methods": {}
  }
}