{
  "contractName": "TipJar",
  "abi": [
    {
      "inputs": [],
      "payable": false,
      "stateMutability": "nonpayable",
      "type": "constructor"
    },
    {
      "constant": false,
      "inputs": [],
      "name": "withdraw",
      "outputs": [],
      "payable": false,
      "stateMutability": "nonpayable",
      "type": "function"
    },
    {
      "constant": false,
      "inputs": [
        {
          "internalType": "uint256",
          "name": "amount",
          "type": "uint256"
        }
      ],
      "name": "deposit",
      "outputs": [],
      "payable": true,
      "stateMutability": "payable",
      "type": "function"
    },
    {
      "constant": true,
      "inputs": [],
      "name": "getBalance",
      "outputs": [
        {
          "internalType": "uint256",
          "name": "",
          "type": "uint256"
        }
      ],
      "payable": false,
      "stateMutability": "view",
      "type": "function"
    }
  ],
  "bytecode": "0x608060405234801561001057600080fd5b50336000806101000a81548173ffffffffffffffffffffffffffffffffffffffff021916908373ffffffffffffffffffffffffffffffffffffffff160217905550610197806100606000396000f3fe6080604052600436106100345760003560e01c806312065fe0146100395780633ccfd60b14610064578063b6b55f251461007b575b600080fd5b34801561004557600080fd5b5061004e6100a9565b6040518082815260200191505060405180910390f35b34801561007057600080fd5b506100796100b1565b005b6100a76004803603602081101561009157600080fd5b8101908080359060200190929190505050610153565b005b600047905090565b3373ffffffffffffffffffffffffffffffffffffffff166000809054906101000a900473ffffffffffffffffffffffffffffffffffffffff1673ffffffffffffffffffffffffffffffffffffffff161461010a57600080fd5b3373ffffffffffffffffffffffffffffffffffffffff166108fc479081150290604051600060405180830381858888f19350505050158015610150573d6000803e3d6000fd5b50565b80341461015f57600080fd5b5056fea265627a7a7231582023835a504122404a3aea2e07e66e9f5c62841c5e2a1f8a3b65f76b83521e985664736f6c63430005100032",
  "source": "pragma solidity 0.5.16;\r\n\r\ncontract TipJar {\r\n\r\n    address owner;    // current owner of the contract\r\n\r\n    constructor() public {\r\n        owner = msg.sender;\r\n    }\r\n\r\n    function withdraw() public {\r\n        require(owner == msg.sender);\r\n\r\n        // Transfer the contract balance back to the owner\r\n        msg.sender.transfer(address(this).balance);\r\n    }\r\n\r\n    // As a payable function, $ETH is being sent to this contract\r\n    function deposit(uint256 amount) public payable {\r\n        require(msg.value == amount);\r\n    }\r\n\r\n    // Retrive contract balance\r\n    function getBalance() public view returns (uint256) {\r\n        return address(this).balance;\r\n    }\r\n}",
  "sourcePath": "D:/Code/solidity/contracts/tip_jar/tip_jar.sol",
  "compiler": {
    "name": "solc",
    "version": "0.5.16+commit.9c3226ce.Emscripten.clang"
  },
  "schemaVersion": "3.3.2",
  "updatedAt": "2021-08-27T16:12:50.214Z",
  "devdoc": {
    "methods": {}
  },
  "userdoc": {
    "methods": {}
  }
}