{
  "contractName": "Trivial",
  "abi": [
    {
      "constant": false,
      "inputs": [
        {
          "internalType": "uint256",
          "name": "_state",
          "type": "uint256"
        }
      ],
      "name": "State",
      "outputs": [],
      "payable": false,
      "stateMutability": "nonpayable",
      "type": "function"
    },
    {
      "constant": true,
      "inputs": [],
      "name": "getPersistentValue",
      "outputs": [
        {
          "internalType": "uint256",
          "name": "",
          "type": "uint256"
        }
      ],
      "payable": false,
      "stateMutability": "view",
      "type": "function"
    },
    {
      "constant": true,
      "inputs": [],
      "name": "getPureValue",
      "outputs": [
        {
          "internalType": "uint256",
          "name": "",
          "type": "uint256"
        }
      ],
      "payable": false,
      "stateMutability": "pure",
      "type": "function"
    },
    {
      "constant": false,
      "inputs": [
        {
          "internalType": "uint256",
          "name": "_count",
          "type": "uint256"
        }
      ],
      "name": "setCounter",
      "outputs": [],
      "payable": false,
      "stateMutability": "nonpayable",
      "type": "function"
    },
    {
      "constant": false,
      "inputs": [],
      "name": "increment",
      "outputs": [],
      "payable": false,
      "stateMutability": "nonpayable",
      "type": "function"
    },
    {
      "constant": true,
      "inputs": [],
      "name": "getCount",
      "outputs": [
        {
          "internalType": "uint256",
          "name": "",
          "type": "uint256"
        }
      ],
      "payable": false,
      "stateMutability": "view",
      "type": "function"
    }
  ],
  "bytecode": "0x608060405234801561001057600080fd5b5061019e806100206000396000f3fe608060405234801561001057600080fd5b50600436106100625760003560e01c80637a05f264146100675780638491baab146100955780638bb5d9c3146100b3578063a87d942c146100e1578063ca28dd4a146100ff578063d09de08a1461011d575b600080fd5b6100936004803603602081101561007d57600080fd5b8101908080359060200190929190505050610127565b005b61009d610131565b6040518082815260200191505060405180910390f35b6100df600480360360208110156100c957600080fd5b810190808035906020019092919050505061013a565b005b6100e9610144565b6040518082815260200191505060405180910390f35b61010761014e565b6040518082815260200191505060405180910390f35b610125610157565b005b8060008190555050565b60008054905090565b8060018190555050565b6000600154905090565b60006063905090565b6001806000828254019250508190555056fea265627a7a72315820465ca67bffb9eb64f604b3e9fbca3e86e575a0360c49af8b1adb45acad408b7f64736f6c63430005100032",
  "source": "pragma solidity 0.5.16;\r\n\r\ncontract Trivial {\r\n\r\n    uint256 state;  // persistent contract storage\r\n    uint256 count;  // persistent contract storage\r\n\r\n    function State(uint256 _state) public {\r\n        state = _state;\r\n    }\r\n\r\n    function getPersistentValue() public view returns (uint256) {\r\n        return state;\r\n    }\r\n\r\n    // Pure functions ensure that they do not read or modify the state\r\n    function getPureValue() public pure returns (uint256) {\r\n        return 99;\r\n    }\r\n\r\n    function setCounter(uint256 _count) public {\r\n        count = _count;\r\n    }\r\n\r\n    function increment() public {\r\n        count += 1;\r\n    }\r\n\r\n    function getCount() public view returns (uint256) {\r\n        return count;\r\n    }\r\n\r\n}\r\n",
  "sourcePath": "D:/Code/solidity/contracts/introduction/introduction.sol",
  "compiler": {
    "name": "solc",
    "version": "0.5.16+commit.9c3226ce.Emscripten.clang"
  },
  "schemaVersion": "3.3.2",
  "updatedAt": "2021-08-27T15:44:50.337Z",
  "devdoc": {
    "methods": {}
  },
  "userdoc": {
    "methods": {}
  }
}