{
  "contractName": "Trivial",
  "abi": [
    {
      "constant": true,
      "inputs": [],
      "name": "getValue",
      "outputs": [
        {
          "internalType": "uint256",
          "name": "",
          "type": "uint256"
        }
      ],
      "payable": false,
      "stateMutability": "pure",
      "type": "function"
    }
  ],
  "bytecode": "0x6080604052348015600f57600080fd5b5060878061001e6000396000f3fe6080604052348015600f57600080fd5b506004361060285760003560e01c80632096525514602d575b600080fd5b60336049565b6040518082815260200191505060405180910390f35b6000606390509056fea265627a7a72315820ca7dcc2764c2d0ba606e4531755dc92b499af04454ab8b1f0648c636af94a20c64736f6c63430005100032",
  "source": "pragma solidity 0.5.16;\r\n\r\ncontract Trivial {\r\n\r\n    // Pure functions ensure that they do not read or modify the state\r\n    function getValue() public pure returns (uint256) {\r\n        return 99;\r\n    }\r\n\r\n}\r\n",
  "sourcePath": "D:/Code/solidity/contracts/trivial/trivial.sol",
  "compiler": {
    "name": "solc",
    "version": "0.5.16+commit.9c3226ce.Emscripten.clang"
  },
  "schemaVersion": "3.3.2",
  "updatedAt": "2021-08-26T21:24:38.346Z",
  "devdoc": {
    "methods": {}
  },
  "userdoc": {
    "methods": {}
  }
}